:020000040800F2
:1000000000000220D11E00086117000863170008D5
:10001000651700086717000869170008000000004E
:10002000000000000000000000000000814E0008F9
:100030006B17000800000000214F0008854F0008E2
:10004000211F0008211F0008211F0008211F000890
:10005000211F0008211F0008211F0008211F000880
:10006000211F0008211F0008211F0008211F000870
:10007000211F0008211F0008211F0008211F000860
:100080006D1700087D170008211F00080000000000
:10009000000000000000000000000000211F000818
:1000A000211F00088D170008211F0008211F0008CC
:1000B000211F0008211F0008211F0008211F000820
:1000C000211F0008211F0008211F0008211F000810
:1000D000211F00089D170008AD1700080000000050
:1000E000211F0008211F0008211F00080000000038
:1000F000000000000000000000000000211F0008B8
:1001000000000000211F0008211F0008211F000817
:1001100000000000000000000000000000000000DF
:10012000BD170008CD170008DD170008211F0008C3
:10013000211F000800000000000000000000000077
:10014000000000000000000000000000211F000867
:10015000211F0008ED170008FD1700080D18000802
:10016000211F0008211F00080000000000000000FF
:10017000000000000000000000000000000000007F
:1001800000000000211F0008000000000000000027
:08019000211F0008211F0008D7
:1001C00081F0004102E000BF83F0004330B54FEA08
:1001D00041044FEA430594EA050F08BF90EA020F75
:1001E0001FBF54EA000C55EA020C7FEA645C7FEA08
:1001F000655C00F0E2804FEA5454D4EB5555B8BF2B
:100200006D420CDD2C4480EA020281EA030382EA9B
:10021000000083EA010180EA020281EA0303362D2D
:1002200088BF30BD11F0004F4FEA01314FF4801C00
:100230004CEA113102D0404261EB410113F0004F12
:100240004FEA03334CEA133302D0524263EB4303C9
:1002500094EA050F00F0A780A4F10104D5F1200E67
:100260000DDB02FA0EFC22FA05F2801841F10001C2
:1002700003FA0EF2801843FA05F359410EE0A5F196
:1002800020050EF1200E012A03FA0EFC28BF4CF0C7
:10029000020C43FA05F3C01851EBE37101F000457D
:1002A00007D54FF0000EDCF1000C7EEB00006EEB8A
:1002B0000101B1F5801F1BD3B1F5001F0CD3490814
:1002C0005FEA30004FEA3C0C04F101044FEA44526B
:1002D00012F5800F80F09A80BCF1004F08BF5FEAF2
:1002E000500C50F1000041EB045141EA050130BDD2
:1002F0005FEA4C0C404141EB0101013C28BFB1F5E4
:10030000801FE9D291F0000F04BF01460020B1FA2E
:1003100081F308BF2033A3F10B03B3F120020CDA01
:100320000C3208DD02F1140CC2F10C0201FA0CF0DF
:1003300021FA02F10CE002F11402D8BFC2F1200C44
:1003400001FA02F120FA0CFCDCBF41EA0C019040FA
:10035000E41AA2BF01EB0451294330BD6FEA040443
:100360001F3C1CDA0C340EDC04F11404C4F120022E
:1003700020FA04F001FA02F340EA030021FA04F340
:1003800045EA030130BDC4F10C04C4F1200220FA97
:1003900002F001FA04F340EA0300294630BD21FAD5
:1003A00004F0294630BD94F0000F83F4801306BF9B
:1003B00081F480110134013D4EE77FEA645C18BF8F
:1003C0007FEA655C29D094EA050F08BF90EA020F26
:1003D00005D054EA000C04BF1946104630BD91EA1E
:1003E000030F1EBF0021002030BD5FEA545C05D121
:1003F0004000494128BF41F0004130BD14F5800460
:100400003CBF01F5801130BD01F0004545F0FE41D3
:1004100041F470014FF0000030BD7FEA645C1ABF08
:10042000194610467FEA655C1CBF0B46024650EA3F
:10043000013406BF52EA033591EA030F41F400216B
:1004400030BD00BF90F0000F04BF0021704730B5F1
:100450004FF4806404F132044FF000054FF00001C6
:1004600050E700BF90F0000F04BF0021704730B587
:100470004FF4806404F1320410F0004548BF40425C
:100480004FF000013EE700BF42004FEAE2014FEAB1
:1004900031014FEA02701FBF12F07F4393F07F4F8C
:1004A00081F06051704732F07F4208BF704793F08F
:1004B0007F4F04BF41F40021704730B54FF46074A2
:1004C00001F0004521F000411CE700BF50EA0102A5
:1004D00008BF704730B54FF000050AE050EA01024E
:1004E00008BF704730B511F0004502D5404261EBBE
:1004F00041014FF4806404F132045FEA915C3FF4FF
:10050000D8AE4FF003025FEADC0C18BF03325FEA9B
:10051000DC0C18BF033202EBDC02C2F1200300FA4C
:1005200003FC20FA02F001FA03FE40EA0E0021FA71
:1005300002F11444BDE600BF70B54FF0FF0C4CF45F
:10054000E06C1CEA11541DBF1CEA135594EA0C0F11
:1005500095EA0C0F00F0DEF82C4481EA030621EA4C
:100560004C5123EA4C5350EA013518BF52EA033587
:1005700041F4801143F4801338D0A0FB02CE4FF039
:100580000005E1FB02E506F00042E0FB03E54FF069
:100590000006E1FB03569CF0000F18BF4EF0010E61
:1005A000A4F1FF04B6F5007F64F5407404D25FEA5D
:1005B0004E0E6D4146EB060642EAC62141EA555110
:1005C0004FEAC52040EA5E504FEACE2EB4F1FD0C52
:1005D00088BFBCF5E06F1ED8BEF1004F08BF5FEAD0
:1005E000500E50F1000041EB045170BD06F0004682
:1005F00046EA010140EA020081EA0301B4EB5C042F
:10060000C2BFD4EB0C0541EA045170BD41F4801126
:100610004FF0000E013C00F3AB8014F1360FDEBF4B
:10062000002001F0004170BDC4F10004203C35DA27
:100630000C341BDC04F11404C4F1200500FA05F3AA
:1006400020FA04F001FA05F240EA020001F000424B
:1006500021F0004110EBD37021FA04F642EB0601C1
:100660005EEA430E08BF20EAD37070BDC4F10C04EB
:10067000C4F1200500FA04F320FA05F001FA04F2AF
:1006800040EA020001F0004110EBD37041F100019B
:100690005EEA430E08BF20EAD37070BDC4F12005A6
:1006A00000FA05F24EEA020E20FA04F301FA05F20E
:1006B00043EA020321FA04F001F0004121FA04F2B6
:1006C00020EA020000EBD3705EEA430E08BF20EA86
:1006D000D37070BD94F0000F0FD101F000464000C0
:1006E00041EB010111F4801F08BF013CF7D041EA42
:1006F000060195F0000F18BF704703F00046520046
:1007000043EB030313F4801F08BF013DF7D043EA16
:100710000603704794EA0C0F0CEA135518BF95EACC
:100720000C0F0CD050EA410618BF52EA4306D1D153
:1007300081EA030101F000414FF0000070BD50EA72
:10074000410606BF1046194652EA430619D094EAFC
:100750000C0F02D150EA013613D195EA0C0F05D1E6
:1007600052EA03361CBF104619460AD181EA03013A
:1007700001F0004141F0FE4141F470014FF00000F2
:1007800070BD41F0FE4141F4780170BD70B54FF08D
:10079000FF0C4CF4E06C1CEA11541DBF1CEA13550D
:1007A00094EA0C0F95EA0C0F00F0A7F8A4EB0504EF
:1007B00081EA030E52EA03354FEA013100F08880E6
:1007C0004FEA03334FF0805545EA131343EA1263AF
:1007D0004FEA022245EA111545EA10654FEA002664
:1007E0000EF000419D4208BF964244F1FD0404F51D
:1007F000407402D25B084FEA3202B61A65EB030579
:100800005B084FEA32024FF480104FF4002CB6EB35
:10081000020E75EB030E22BFB61A754640EA0C00B5
:100820005B084FEA3202B6EB020E75EB030E22BFF5
:10083000B61A754640EA5C005B084FEA3202B6EB36
:10084000020E75EB030E22BFB61A754640EA9C00F5
:100850005B084FEA3202B6EB020E75EB030E22BFC5
:10086000B61A754640EADC0055EA060E18D04FEA83
:10087000051545EA16754FEA06164FEAC30343EA23
:1008800052734FEAC2025FEA1C1CC0D111F4801FF0
:100890000BD141EA00014FF000004FF0004CB6E7E9
:1008A00011F4801F04BF01430020B4F1FD0C88BF88
:1008B000BCF5E06F3FF6AFAEB5EB030C04BFB6EB93
:1008C000020C5FEA500C50F1000041EB045170BD86
:1008D0000EF0004E4EEA113114EB5C04C2BFD4EBB3
:1008E0000C0541EA045170BD41F480114FF0000E37
:1008F000013C90E645EA060E8DE60CEA135594EAB3
:100900000C0F08BF95EA0C0F3FF43BAF94EA0C0FB5
:100910000AD150EA01347FF434AF95EA0C0F7FF42A
:1009200025AF104619462CE795EA0C0F06D152EA7E
:1009300003353FF4FDAE1046194622E750EA410662
:1009400018BF52EA43067FF4C5AE50EA41047FF473
:100950000DAF52EA43057FF4EBAE12E780F00040A2
:1009600002E000BF81F0004142001FBF5FEA410387
:1009700092EA030F7FEA226C7FEA236C6AD04FEA87
:100980001262D2EB1363C1BFD218414048404140CC
:10099000B8BF5B42192B88BF704710F0004F40F47E
:1009A000000020F07F4018BF404211F0004F41F49A
:1009B000000121F07F4118BF494292EA030F3FD066
:1009C000A2F1010241FA03FC10EB0C00C3F1200379
:1009D00001FA03F100F0004302D5494260EB400008
:1009E000B0F5000F13D3B0F1807F06D340084FEA73
:1009F000310102F10102FE2A51D2B1F1004F40EB68
:100A0000C25008BF20F0010040EA030070474900CF
:100A100040EB0000013A28BFB0F5000FEDD2B0FA6C
:100A200080FCACF1080CB2EB0C0200FA0CF0AABF8F
:100A300000EBC25052421843BCBFD040184370472D
:100A400092F0000F81F4000106BF80F40000013233
:100A5000013BB5E74FEA41037FEA226C18BF7FEA0A
:100A6000236C21D092EA030F04D092F0000F08BF4C
:100A70000846704790EA010F1CBF0020704712F033
:100A80007F4F04D1400028BF40F00040704712F172
:100A900000723CBF00F50000704700F0004343F0D7
:100AA000FE4040F4000070477FEA226216BF08460D
:100AB0007FEA23630146420206BF5FEA412390EAD0
:100AC000010F40F4800070474FF0000304E000BFC6
:100AD00010F0004348BF40425FEA000C08BF704777
:100AE00043F0964301464FF000001CE050EA01023B
:100AF00008BF70474FF000030AE000BF50EA010250
:100B000008BF704711F0004302D5404261EB41013C
:100B10005FEA010C02BF84460146002043F0B64361
:100B200008BFA3F18053A3F50003BCFA8CF2083A86
:100B3000A3EBC25310DB01FA02FC634400FA02FC8F
:100B4000C2F12002BCF1004F20FA02F243EB020096
:100B500008BF20F00100704702F1200201FA02FCF8
:100B6000C2F1200250EA4C0021FA02F243EB0200EB
:100B700008BF20EADC70704753B94AB9002908BFA2
:100B800000281CBF4FF0FF314FF0FF3000F00CB8D1
:100B9000ADF1080C6DE904CE07F0EEFFDDF804E0DE
:100BA000DDE9022304B07047704700BF844641EA84
:100BB000000313F003036DD1403A41D351F8043BD5
:100BC00040F8043B51F8043B40F8043B51F8043B27
:100BD00040F8043B51F8043B40F8043B51F8043B17
:100BE00040F8043B51F8043B40F8043B51F8043B07
:100BF00040F8043B51F8043B40F8043B51F8043BF7
:100C000040F8043B51F8043B40F8043B51F8043BE6
:100C100040F8043B51F8043B40F8043B51F8043BD6
:100C200040F8043B51F8043B40F8043B51F8043BC6
:100C300040F8043B51F8043B40F8043B403ABDD235
:100C4000303211D351F8043B40F8043B51F8043BD7
:100C500040F8043B51F8043B40F8043B51F8043B96
:100C600040F8043B103AEDD20C3205D351F8043B66
:100C700040F8043B043AF9D2043208D0D2071CBF32
:100C800011F8013B00F8013B01D30B88038060465B
:100C9000704700BF082A13D38B078DD010F00303D1
:100CA0008AD0C3F10403D21ADB071CBF11F8013B41
:100CB00000F8013B80D331F8023B20F8023B7BE790
:100CC000043AD9D3013A11F8013B00F8013BF9D2BB
:100CD0000B7803704B7843708B7883706046704755
:100CE00001F0FF01102A2BDB10F0070F08D010F8DD
:100CF000013B013A8B422DD010F0070F42B3F6D1E1
:100D0000F0B441EA012141EA014122F007047FF0F9
:100D100000070023F0E80256083C85EA010586EA50
:100D2000010685FA47F5A3FA87F586FA47F6A5FA8C
:100D300087F68EB9EED1F0BC01F0FF0102F0070298
:100D400032B110F8013B013A83EA010313B1F8D143
:100D50000020704701387047002D06BF3546033824
:100D6000073815F0010F07D1013015F4807F02BF5D
:100D7000013015F4C03F0130F0BC0138704700BFAE
:100D800030B490F800F020F007016FF0000C10F084
:100D9000070491F820F040F048804FF000046FF015
:100DA0000700D1E9002391F840F000F1080082FA31
:100DB0004CF2A4FA8CF283FA4CF3A2FA8CF34BBBFC
:100DC000D1E9022382FA4CF200F10800A4FA8CF275
:100DD00083FA4CF3A2FA8CF3E3B9D1E9042382FA43
:100DE0004CF200F10800A4FA8CF283FA4CF3A2FA58
:100DF0008CF37BB9D1E9062301F1200182FA4CF290
:100E000000F10800A4FA8CF283FA4CF3A2FA8CF3F6
:100E1000002BC6D0002A04BF04301A4612BAB2FA18
:100E200082F200EBD20030BC7047D1E9002304F01D
:100E30000305C4F100004FEAC50514F0040F91F852
:100E400040F00CFA05F562EA05021CBF63EA0503EF
:100E500062464FF00004AAE74FF0FF3C06E000BFF7
:100E60004FF0010C02E000BF4FF0010C4DF804CD33
:100E70004FEA410C7FEA6C5C4FEA430C18BF7FEAF3
:100E80006C5C1BD001B050EA410C0CBF52EA430C21
:100E900091EA030F02BF90EA020F0020704710F1A1
:100EA000000F91EA030F58BF994208BF90422CBF30
:100EB000D8176FEAE37040F0010070474FEA410C29
:100EC0007FEA6C5C02D150EA013C07D14FEA430C47
:100ED0007FEA6C5CD6D152EA033CD3D05DF8040BB8
:100EE000704700BF8446104662468C4619466346EA
:100EF00000E000BF01B5FFF7B7FF002848BF10F1C1
:100F0000000F01BD4DF808EDFFF7F4FF0CBF012005
:100F100000205DF808FB00BF4DF808EDFFF7EAFF81
:100F200034BF012000205DF808FB00BF4DF808ED3C
:100F3000FFF7E0FF94BF012000205DF808FB00BF31
:100F40004DF808EDFFF7CEFF94BF012000205DF8BB
:100F500008FB00BF4DF808EDFFF7C4FF34BF0120C8
:100F600000205DF808FB00BF4FEA410C7FEA6C5C93
:100F700002D150EA013C0AD14FEA430C7FEA6C5C93
:100F800002D152EA033C02D14FF0000070474FF00B
:100F9000010070474FEA410212F5001215D211D537
:100FA0006FF47873B3EB625212D94FEAC12343F066
:100FB000004343EA505311F0004F23FA02F018BFE8
:100FC000404270474FF00000704750EA013005D1B1
:100FD00011F0004008BF6FF0004070474FF0000074
:100FE000704700BF0348044B834202D0034B03B158
:100FF00018477047EC060020EC06002000000000B7
:101000000548064B1B1AD90F01EBA301491002D06A
:10101000034B03B118477047EC060020EC06002094
:101020000000000010B5064C237843B9FFF7DAFF43
:10103000044B13B10448AFF300800123237010BDAB
:10104000F00600200000000038EE000808B5054B4F
:101050001BB105490548AFF30080BDE80840FFF724
:10106000CFBF00BF00000000F406002038EE0008EB
:1010700000B585B0002300930193029303931548B4
:10108000154A02604FF48032426083600361037648
:1010900080F82030C362114A8262C3600123C361B9
:1010A00080F83030436101F017F860B900230093F5
:1010B0000122019202936946064801F039F828B9E5
:1010C00005B05DF804FB00F067FAEFE700F064FAA2
:1010D000F6E700BF6C070020002001400100000F70
:1010E00030B589B0002303930493059306930793C7
:1010F000026803F1804303F590339A4201D009B0AE
:1011000030BD04460025019503F58C335A6C42F43A
:1011100080725A645A6C02F480720192019A0295AC
:101120001A6B42F001021A631B6B03F00103029376
:10113000029B012303930323049303A9104801F0A6
:1011400097FB1048104B036045608560C5604FF405
:10115000806303614FF4006343614FF40053836184
:101160004FF48073C3610562456201F09BF918B9C1
:10117000044BA3639C63C2E700F00EFAF8E700BFDC
:10118000000002400C0700201064024010B582B03D
:1011900000240094264B1A6B42F480021A631A6BE7
:1011A00002F480020092009A01941A6B42F4001239
:1011B0001A631B6B03F400130193019B2246052164
:1011C000102001F0DFF8102001F0ECF82246052194
:1011D000112001F0D7F8112001F0E4F82246052192
:1011E000382001F0CFF8382001F0DCF82246052144
:1011F000392001F0C7F8392001F0D4F82246052142
:101200003A2001F0BFF83A2001F0CCF8224605213F
:10121000452001F0B7F8452001F0C4F82246052129
:10122000462001F0AFF8462001F0BCF802B010BD36
:1012300000380240034B0360034B0B6080231360B4
:10124000704700BFB4090020B407002010B596B065
:101250001B4C0DF13C0CA646BEE80F00ACE80F009D
:101260009EE807008CE8070000210FA803F03CFD72
:10127000144B18600DF1200C04F11C0EBEE80F0099
:10128000ACE80F009EE807008CE80700002108A8E2
:1012900003F02AFD0C4B18600DF1040E04F1380C1C
:1012A000BCE80F00AEE80F009CE807008EE80700DE
:1012B000002101A803F018FD044B186016B010BD02
:1012C00050EE0008100A00200C0A0020080A002036
:1012D00010B588B0002203920492059206920792FC
:1012E0000092194B196B41F080011963196B01F0E1
:1012F0008001009100990192196B41F0010119637D
:10130000196B01F001010191019902921A6B42F0EF
:1013100002021A631B6B03F002030293029B0B4C45
:1013200001224FF20631204601F086FB4FF20633D0
:1013300003930123049305930323069303A92046F3
:1013400001F096FA08B010BD0038024000040240D7
:1013500008B50B480B4B03600B4B436000238360C5
:10136000C3604FF48042026143618361C3610362E1
:1013700001F0F2FD00B908BD00F00EF9FBE700BF77
:10138000BC0A002000540040801A060008B50B4833
:101390000B4B03600B4B436000238360C3604FF42F
:1013A0008042026143618361C361036201F0D4FD45
:1013B00000B908BD00F0F0F8FBE700BF680A0020A4
:1013C00000580040801A060008B50B480B4B03601C
:1013D0000B4B436000238360C3604FF48042026183
:1013E00043618361C361036201F0B6FD00B908BDCA
:1013F00000F0D2F8FBE700BF140A0020005C0040B8
:10140000801A06002DE9F0438DB00023079308935E
:1014100009930A930B930368534A934208D0534AA3
:1014200093422AD0524A93425FD00DB0BDE8F08378
:10143000002500954F4C236B43F002032363236B7D
:1014400003F002030093009BC02307931223089329
:101450000123099303230A9304230B9307A9464806
:1014600001F006FA0195236C43F400132364236C06
:1014700003F400130193019BD7E7002502953D4C2F
:10148000236B43F002032363236B03F002030293F5
:10149000029B4FF4806307934FF01209CDF8209020
:1014A0004FF00108CDF8248003270A9704230B93FB
:1014B000314E07A9304601F0DBF908230793CDF838
:1014C0002090CDF824800A9709230B9307A9304672
:1014D00001F0CEF90395236C43F480032364236C5D
:1014E00003F480030393039B9FE700250495214C9D
:1014F000236B43F001032363236B03F00103049385
:10150000049B0595236B43F002032363236B03F0D5
:1015100002030593059B4FF4807307934FF0120865
:10152000CDF820800127099703260A9604230B9300
:1015300007A9124801F09CF910230793CDF82080E9
:1015400009970A9609230B9307A90B4801F090F914
:101550000695236C43F400032364236C03F4000317
:101560000693069B61E700BF00540040005800400E
:10157000005C0040003802400004024000000240CD
:1015800008B50268034B9A4200D008BD00F0E4FCA5
:10159000FBE700BF0044014072B6FEE700B595B01E
:1015A0003022002108A807F0B9FD0023039304931B
:1015B00005930693079301931F4A116C41F08051E4
:1015C0001164126C02F080520192019A02931B4B3B
:1015D0001A6842F440421A601B6803F440430293C5
:1015E000029B012308934FF48033099302230E9347
:1015F0004FF480020F9206221092642211921293ED
:101600000423139308A801F0B3FF88B90F230393B1
:1016100002230493002305934FF48052069207930C
:10162000032103A802F0F4F920B915B05DF804FB1A
:10163000FFF7B2FFFFF7B0FF003802400070004034
:1016400008B500F06FFCFFF7A9FFFFF741FEFFF7B9
:101650009DFD00F089FAFFF77BFEFFF797FEFFF78D
:10166000B3FE00F09DFA00F0B5FAFFF701FD00F0BF
:10167000F9F900F037FA00F039F907F097F8FFF7B9
:10168000E5FD03F02CFBFEE700B583B000220092DD
:101690000D4B596C41F480415964596C01F48041FF
:1016A000009100990192196C41F0805119641B6CF2
:1016B00003F080530193019B0F216FF0010000F0B4
:1016C00061FE03B05DF804FB0038024030B589B01C
:1016D0000546002401941D4B5A6C42F400325A64B2
:1016E0005B6C03F400330193019B02A903A802F091
:1016F00065FA02F053FA164AA2FB00239B0C013B49
:101700001448154A026040F2E732C2604360046147
:101710008460846102F094FC044610B1204609B054
:1017200030BD0C4802F04AFB04460028F6D11920CF
:1017300000F038FE0F2D01D90124EFE700222946E1
:10174000192000F01FFE054B1D60E7E7003802403E
:1017500083DE1B43100B00200044014008000020E2
:10176000FEE7FEE7FEE7FEE7FEE7704708B5024842
:1017700000F090FF08BD00BF540D002008B50248DE
:1017800000F088FF08BD00BFF40C002008B5024837
:1017900002F054FB08BD00BF100B002008B5024842
:1017A00003F05EF808BD00BF040F002008B5024832
:1017B00003F056F808BD00BFBC0E002008B5024873
:1017C00000F068FF08BD00BF0C07002008B5024804
:1017D00000F060FF08BD00BF340C002008B50248CF
:1017E00000F058FF08BD00BF140E002008B50248E5
:1017F00000F050FF08BD00BF940C002008B502485F
:1018000000F048FF08BD00BFB40D002008B5024835
:1018100003F026F808BD00BF740E002001207047B9
:1018200008B507F021FD162303604FF0FF3008BD17
:1018300008B54FF0FF31FFF7F3FFFEE770B50C4638
:101840001646002506E0AFF30080214601F8010BA3
:1018500001350C46B542F6DB304670BD70B50C461E
:101860001646002504E014F8010BAFF300800135A3
:10187000B542F8DB304670BD4FF0FF3070474FF493
:1018800000534B60002070470120704700207047D4
:1018900010B503460C4A0D490D48006840B10C488C
:1018A00000680344521A934206D8094A136010BDD7
:1018B0000748084C0460F2E707F0D6FC0C230360ED
:1018C0004FF0FF30F3E700BF0000022000100000DF
:1018D000580B002098A50020034AD2F8883043F422
:1018E0007003C2F88830704700ED00E000B587B0A3
:1018F00000230293039304930593009301931548E7
:101900004FF0804202606322426083604FF0FF32FA
:10191000C2600361836102F093FB90B94FF480537E
:10192000029302A90B4802F08CFC68B900230093D3
:1019300001936946074802F003FD40B907B05DF81E
:1019400004FBFFF729FEE9E7FFF726FEEEE7FFF7C6
:1019500023FEF3E7EC0B00200368B3F1804F00D0C7
:10196000704782B000230193054B1A6C42F00102CC
:101970001A641B6C03F001030193019B02B07047D2
:101980000038024082B00368104A934204D0104AE3
:1019900093420ED002B07047002300930D4B1A6C97
:1019A00042F002021A641B6C03F002030093009BD6
:1019B000F0E700230193074B1A6C42F008021A6407
:1019C0001B6C03F008030193019BE3E70004004054
:1019D000000C00400038024000B589B0002303939A
:1019E000049305930693079303681A4A934205D01C
:1019F000194A934218D009B05DF804FB0023019303
:101A0000164B1A6B42F001021A631B6B03F00103C1
:101A10000193019B4023039302230493079303A99B
:101A20000F4800F025FFE6E7002302930B4B1A6BEB
:101A300042F001021A631B6B03F001030293029B45
:101A4000022303930493079303A9054800F010FFB2
:101A5000D1E700BF00040040000C00400038024005
:101A60000000024000B58BB0002308930993019356
:101A70000293039304930593069307931748184A18
:101A80000260436083604FF6FF72C260036183614E
:101A900002F002FBC0B900230893099308A90F487C
:101AA00002F04EFC98B96023019300220292039247
:101AB000059201A9094802F049FB58B90748FFF708
:101AC0008BFF0BB05DF804FBFFF766FDE3E7FFF764
:101AD00063FDE8E7FFF760FDF0E700BFA40B00201F
:101AE0000004004000B58BB00023089309930193D4
:101AF0000293039304930593069307931848194A96
:101B00000260436083604FF0FF32C2600361836113
:101B100002F0C2FAD0B900230893099308A910482B
:101B200002F00EFCA8B960230193002302930393F3
:101B3000059304220DEB0201094802F007FB58B996
:101B40000748FFF749FF0BB05DF804FBFFF724FDE2
:101B5000E1E7FFF721FDE6E7FFF71EFDF0E700BF35
:101B60005C0B0020000C004008B50A480A4B0360DB
:101B70000A4B436000238360C36003610C2242610F
:101B80008361C36102F012FD00B908BDFFF704FDD7
:101B9000FBE700BF040F00200010014040420F008F
:101BA00008B50A480A4B03604FF4612343600023E1
:101BB0008360C36003610C2242618361C36102F0F0
:101BC000F5FC00B908BDFFF7E7FCFBE7BC0E002001
:101BD0000044004008B50A480A4B03604FF4E13363
:101BE000436000238360C36003610C224261836110
:101BF000C36102F0DBFC00B908BDFFF7CDFCFBE7D9
:101C0000740E00200014014030B58DB0044600234E
:101C10000793089309930A930B9303689B4A934293
:101C200008D09B4A934269D09A4A934200F0C980F7
:101C30000DB030BD00250195974B5A6C42F0100253
:101C40005A645A6C02F010020192019A02951A6BC2
:101C500042F001021A631B6B03F001030293029B23
:101C60004FF4C06307930223089303230A930723C7
:101C70000B9307A9894800F0FBFD8948894B036055
:101C80004FF0006343608560C5604FF4806303617B
:101C900045618561C5614FF480330362456200F0A0
:101CA00001FC28BB7E4BE3639C637F487F4B036052
:101CB0004FF000634360402383600023C3604FF410
:101CC0008062026143618361C3614FF480320262CA
:101CD000436200F0E7FB70B9734BA3639C6300227F
:101CE0000521252000F04EFB252000F05BFB9FE73F
:101CF000FFF752FCD6E7FFF74FFCEDE70025039511
:101D0000654B1A6C42F400321A641A6C02F4003209
:101D10000392039A04951A6B42F001021A631B6B3B
:101D200003F001030493049B0C23079302230893FD
:101D300003230A9307230B9307A9584800F098FD43
:101D40005B485C4B03604FF0006343608560C56097
:101D50004FF48063036145618561C5614FF4403391
:101D60000362456200F09EFB28BB514BE3639C631A
:101D70005148524B03604FF000634360402383603F
:101D80000023C3604FF48062026143618361C361D9
:101D90004FF440320262436200F084FB70B9464B5C
:101DA000A3639C6300220521262000F0EBFA262085
:101DB00000F0F8FA3CE7FFF7EFFBD6E7FFF7ECFBA4
:101DC000EDE700250595344B5A6C42F020025A6429
:101DD0005A6C02F020020592059A06951A6B42F0A1
:101DE00001021A631B6B03F001030693069B4FF479
:101DF000C05307930223089303230A9308230B93EA
:101E000007A9264800F034FD2D482E4B03604FF003
:101E10002063436040238360C5604FF480630361A7
:101E200045618561C5614FF440330362456200F04E
:101E300039FB20BB224BA3639C632348234B0360E5
:101E40004FF02063436000238360C3604FF48062DF
:101E5000026143618361C3614FF4403202624362B5
:101E600000F020FB70B9184BE3639C63002205214E
:101E7000472000F087FA472000F094FAD8E6FFF7F1
:101E80008BFBD7E7FFF788FBEDE700BF00100140B1
:101E900000440040001401400038024000000240AD
:101EA000140E002040640240B40D0020B8640240CB
:101EB000540D002088600240F40C0020A060024015
:101EC000940C0020A0640240340C002028640240DE
:101ED000DFF834D0FFF700FD0C480D490D4A002310
:101EE00002E0D458C4500433C4188C42F9D30A4ACF
:101EF0000A4C002301E013600432A242FBD307F036
:101F0000B9F9FFF79DFB7047000002200000002098
:101F1000EC060020B8F60008F006002094A500208A
:101F2000FEE7000008B50B4B1A6842F400721A6015
:101F30001A6842F480621A601A6842F480721A6069
:101F4000032000F00DFA0520FFF7C0FBFFF79CFB14
:101F5000002008BD003C0240034A1168034B1B7877
:101F60000B441360704700BF4C0F0020040000209A
:101F7000014B1868704700BF4C0F002038B504466D
:101F8000FFF7F6FF0546B4F1FF3F02D0044B1B7884
:101F90001C44FFF7EDFF401BA042FAD338BD00BF41
:101FA000040000204A4B5A6822F440325A605A68B2
:101FB00041680A435A600268536823F4807353608F
:101FC00002685368016943EA012353600268536859
:101FD00023F0407353600268536881680B43536079
:101FE0000268936823F40063936002689368C16891
:101FF0000B439360826A374B9A4257D002689368CA
:1020000023F07063936002689368816A0B43936066
:102010000268936823F04053936002689368C16A32
:102020000B4393600268936823F002039360026895
:102030009368017E43EA4103936090F82030002BBF
:102040003FD00268536843F40063536002685368EA
:1020500023F46043536001684B68426A013A43EAE3
:1020600042334B600268D36A23F47003D362016881
:10207000CB6AC269013A43EA0253CB6202689368B1
:1020800023F4007393600268936890F8301043EA79
:10209000412393600268936823F48063936002682D
:1020A0009368416943EA81239360704702689368AB
:1020B00023F0706393600268936823F04053936049
:1020C000B0E70268536823F400635360CAE700BFB7
:1020D000002301400100000F38B310B50446036C23
:1020E00043B1236C13F0100F0BD00120002384F8B0
:1020F0003C3010BDFEF7F4FF0023636484F83C30ED
:10210000EFE7236C23F4885323F0020343F0020328
:1021100023642046FFF746FF00206064236C23F011
:10212000030343F001032364E0E70120704700004C
:1021300030B482B00022019290F83C20012A00F0D5
:10214000C0800346012280F83C200A68092A40D951
:102150000468E06892B202EB42021E3A4FF0070CAC
:102160000CFA02F220EA0202E2601C68E0680A88C7
:1021700002EB42021E3A8D6805FA02F20243E26067
:102180004A68062A3CD81C68606B02EB8202053A5A
:102190004FF01F0C0CFA02F220EA020262631C6884
:1021A000606B4A6802EB8202053AB1F800C00CFA93
:1021B00002F2024362631868434A904250D01868A2
:1021C000414A904259D0002083F83C0002B030BC14
:1021D00070470468206992B202EB42024FF0070C8C
:1021E0000CFA02F220EA020222611C6820690A88C5
:1021F00002EB42028D6805FA02F202432261BFE758
:102200000C2A16D81D68286B02EB8202233A1F2481
:1022100004FA02F220EA02022A631D68286B4A6867
:1022200002EB8202233A0C8804FA02F202432A6388
:10223000C1E71D68E86A02EB8202413A1F2404FAF2
:1022400002F220EA0202EA621D68E86A4A6802EBCA
:102250008202413A0C8804FA02F20243EA62AAE7D7
:102260000A68122AABD1194A506820F40000506065
:10227000506840F480005060A1E70A681448824228
:1022800001D0112A9FD1114A506820F4800050607B
:10229000506840F40000506009680D4A914292D1A4
:1022A0000C4A12680C49A1FB0212920C02EB82024A
:1022B00052000192019A002A85D0019A013A0192B6
:1022C000F8E7022082E700BF002001400023014020
:1022D000120000100000002083DE1B43002807DBF3
:1022E00000F01F02400901239340024A42F82030C7
:1022F000704700BF00E100E0002808DB0901C9B217
:1023000000F1604000F5614080F80013704700F074
:102310000F000901C9B2014B1954704714ED00E0D8
:1023200000B500F00700C0F1070CBCF1040F28BF96
:102330004FF0040C031D062B0FD9C31E4FF0FF3EB8
:102340000EFA0CF021EA000199400EFA03FE22EA8F
:102350000E0241EA02005DF804FB0023EEE70000F4
:10236000074AD36823F4E0631B041B0C000200F44B
:10237000E060034343F0BF6343F40033D36070472E
:1023800000ED00E010B50446054BD868C0F302200C
:10239000FFF7C6FF01462046FFF7AEFF10BD00BFA6
:1023A00000ED00E008B5FFF799FF08BD30B40568FF
:1023B0002C6824F480242C60046863608368402BBC
:1023C00005D0036899600368DA6030BC7047036821
:1023D0009A600368D960F8E710B40368D9B210397D
:1023E0000A4AA2FB01421209094CA25CC2655F299C
:1023F00007D96FF3090304338365806D5DF8044BDF
:1024000070476FF309038365F7E700BFABAAAAAA79
:102410005CF10008836A826992B9012B0AD0022B11
:1024200002D00BB100207047C36A13F0807F28D11F
:1024300000207047C36AB3F1C07F24D000207047EA
:10244000B2F5005F09D0022B25D9032B25D1C36A31
:1024500013F0807F23D100207047032B03D8DFE8DF
:1024600003F01404140A00207047C36A13F0807F3D
:102470000DD100207047C36AB3F1C07F09D000209E
:1024800070470120704701207047012070470120EC
:1024900070470120704701207047002070470120DD
:1024A0007047000070B50446FFF762FD002C5BD05A
:1024B0000546022384F83530002384F8343022683E
:1024C000136823F00103136023681A6812F0010FE8
:1024D0000AD0FFF74DFD431B052BF5D9202363657B
:1024E000032084F8350070BD1A68204911406268E5
:1024F000A0680243E0680243206902436069024326
:10250000A0690243E0690243206A02430A43616A08
:1025100004291ED01A602668756925F00705636ACC
:102520001D43042B07D1A36A1D43E36A1BB1204658
:10253000FFF770FF90B975612046FFF74DFFE26D20
:102540003F239340836000206065012384F8353089
:10255000C9E7E16A206B01430A43DBE74023636577
:10256000012084F83500BEE70120BCE73F8010F071
:1025700038B50446856D90F8340001282BD0012031
:1025800084F8340094F83500C0B2012804D0002348
:1025900084F83430022038BD022084F83500002051
:1025A00060652046FFF702FFE26D3F239340AB607A
:1025B0002268136843F016031360236C23B122686A
:1025C000136843F0080313602268136843F00103A3
:1025D00013600020DFE70220DDE770B50446866D5A
:1025E000FFF7C6FC94F83530DBB2022B06D080230F
:1025F0006365002384F83430012070BD05462268ED
:10260000136823F0160313602268536923F08003D4
:102610005361236CE3B12268136823F0080313604D
:102620002268136823F00103136023681B6813F00A
:10263000010F11D0FFF79CFC431B052BF5D920237C
:102640006365032084F83500002384F83430D4E730
:10265000A36C002BDFD1E3E7E26D3F239340B3602F
:10266000012384F83530002084F83400C5E790F861
:102670003530DBB2022B03D0802343650120704745
:10268000052380F835300268136823F001031360D6
:1026900000207047F0B583B0044600230193724BCD
:1026A0001D68724BA3FB0535AD0A876D3E68C26D90
:1026B00008239340334210D003681A6812F0040FC5
:1026C0000BD01A6822F004021A60C26D08239340EE
:1026D000BB60436D43F001034365E26D012393400A
:1026E000334209D02268526912F0800F04D0BB60D7
:1026F000636D43F002036365E26D0423934033424C
:1027000009D02268126812F0020F04D0BB60636D1A
:1027100043F004036365E26D10239340334224D0F9
:102720002268126812F0080F1FD0BB6023681A6875
:1027300012F4802F0DD01B6813F4002F04D1236CEA
:102740009BB12046984710E0A36C73B12046984790
:102750000BE01A6812F4807F03D11A6822F0080295
:102760001A60236C0BB120469847E26D20239340FA
:10277000334255D02268126812F0100F50D0BB605F
:1027800094F83530DBB2052B0ED023681A6812F4AA
:10279000802F33D01B6813F4002F2AD1636C002BD9
:1027A0003ED0204698473BE02268136823F016038A
:1027B00013602268536923F080035361236CA3B133
:1027C0002268136823F008031360E26D3F239340EF
:1027D000BB60012384F83530002384F83430236D46
:1027E000002B3FD0204698473CE0A36C002BE7D15C
:1027F000EBE7E36BA3B12046984711E01A6812F4A7
:10280000807F09D11A6822F010021A60012384F82F
:102810003530002384F83430E36B0BB12046984701
:10282000636DFBB1636D13F0010F17D0052384F8BE
:1028300035302268136823F001031360019B0133D4
:102840000193AB4204D823681B6813F0010FF5D144
:10285000012384F83530002384F83430E36C0BB165
:102860002046984703B0F0BD00000020B5814E1B04
:1028700000230F2B00F2D78070B582B065E0856829
:102880004FEA430E032404FA0EF425EA0405CC684B
:1028900004FA0EF42C438460446824EA02044A6873
:1028A000C2F300129A40224342605CE0DC08083424
:1028B00050F8242003F00705AD004FF00F0E0EFA7C
:1028C00005FE22EA0E0E0A69AA4042EA0E0240F80C
:1028D00024205CE0042200E0002202FA0EF22A43E7
:1028E0000234514D45F82420504A94686FEA0C0296
:1028F00024EA0C054E6816F4801F01D04CEA04054A
:102900004A4CA560E46802EA04054E6816F4001F0C
:1029100001D04CEA0405454CE560646802EA040510
:102920004E6816F4003F01D04CEA04053F4C656048
:10293000246822404D6815F4803F01D04CEA04021F
:102940003A4C226001330F2B6BD801229A400C685D
:1029500004EA020C32EA0404F4D14C6804F00304E3
:10296000013C012C8BD94A6802F00302032A09D0EA
:10297000C4685D000322AA4024EA02048A68AA40CF
:102980002243C2604A6802F00302022A8ED0046821
:102990004FEA430E032202FA0EF224EA02044A68C6
:1029A00002F0030202FA0EF2224302604A6812F4B5
:1029B000403FC7D0002201921D4A546C44F4804429
:1029C0005464526C02F480420192019A9C08A51C46
:1029D000154A52F8255003F0030E4FEA8E0E0F22CF
:1029E00002FA0EF225EA0205124A90423FF474AF51
:1029F00002F5806290420ED002F5806290420CD0C7
:102A000002F5806290420AD002F5806290423FF463
:102A100061AF072261E701225FE702225DE703223F
:102A20005BE702B070BD704700380140003C0140D8
:102A300000380240000002400AB181617047090479
:102A40008161704703685A6912F4806F01D10020D8
:102A500070476FF480625A6100230363202280F87C
:102A60003D2080F83E30026C42F00402026480F89F
:102A70003C30012070472DE9F04106460C461746D0
:102A800098463BE0FFF774FA069BC01A404502D80F
:102A9000B8F1000F32D1012D18D033689B6924EAB8
:102AA00003039BB2B3FA83F35B099F4226D1002351
:102AB0003363202286F83D2086F83E30326C42F0A7
:102AC0002002326486F83C30012027E033685B69DD
:102AD00024EA03039BB2B3FA83F35B09E5E73368A7
:102AE0005B6924EA030C1FFA8CFCBCFA8CFC4FEAED
:102AF0005C1C674511D1B8F1FF3FC3D1C4F3074552
:102B0000012DECD033689B6924EA030C1FFA8CFC7E
:102B1000BCFA8CFC4FEA5C1CEBE70020BDE8F081BE
:102B20002DE9F84305460E469046994653E01A684B
:102B300042F400721A602B686FF480625A610023BD
:102B40002B63202285F83D2085F83E302A6C42F028
:102B500004022A6485F83C3001204AE0FFF708FAB5
:102B6000A0EB0900404502D8B8F1000F33D1012F86
:102B700017D02B689B6926EA03039BB2003B18BF62
:102B8000012343B300232B63202285F83D2085F8E1
:102B90003E302A6C42F020022A6485F83C30012045
:102BA00027E02B685B6926EA03039BB2003B18BF52
:102BB0000123E6E72B689C6926EA0404A4B2003CE2
:102BC00018BF0124A4B12B685A6912F4806FAED1EA
:102BD000B8F1FF3FC2D1C6F30747012FEAD12B68F6
:102BE0005C6926EA0404A4B2003C18BF0124E9E7AA
:102BF0000020BDE8F88370B504460D4616462368EC
:102C00005B6913F0800F21D12046FFF71BFFF8B955
:102C1000B5F1FF3FF3D0FFF7ABF9801BA84201D815
:102C2000002DECD123685B6913F0800FE7D10023FE
:102C30002363202284F83D2084F83E30226C42F049
:102C40002002226484F83C30012000E0002070BDA6
:102C50000120FCE72DE9F04385B004460D4691467E
:102C60001F46DDF830800D9E0368196841F48071BD
:102C700019600096434600224FF00111FFF7FBFE5A
:102C800060B9236805F0FE051D61334642462649BA
:102C90002046FFF745FF68B1012008E023681B6864
:102CA00013F4807F02D04FF400732364032005B037
:102CB000BDE8F0830023039323685A6903929B695C
:102CC0000393039B324641462046FFF794FF30B9F9
:102CD000012F0FD123685FFA89F61E61E7E7236CA5
:102CE000042B01D00120E2E72268136843F400734B
:102CF0001360F7E723684FEA19221A61324641460A
:102D00002046FFF778FF20B923685FFA89F61E6135
:102D1000CDE7236C042B01D00120C8E7226813689B
:102D200043F400731360F7E7020001002DE9F04758
:102D300084B004460D46164699460C9FDDF8348053
:102D40000268136843F4806313600368196841F4F0
:102D500080711960CDF800803B4600224FF00111D0
:102D6000FFF789FE70B95FFA85FA236805F0FE0562
:102D70001D6143463A4641492046FFF7D1FE68B1FE
:102D8000012008E023681B6813F4807F02D04FF411
:102D900000732364032004B0BDE8F087002303938D
:102DA00023685A6903929B690393039B4246394601
:102DB0002046FFF720FF80B9B9F1010F18D1236831
:102DC000F6B21E61424639462046FFF714FF68B34B
:102DD000236C042B24D00120DDE7236C042B01D0CD
:102DE0000120D8E72268136843F400731360F7E703
:102DF0002368320A1A61424639462046FFF7FBFE35
:102E000018B92368F6B21E61DCE7236C042B01D0ED
:102E10000120C0E72268136843F400731360F7E7EA
:102E20002268136843F400731360D4E722681368C0
:102E300043F480731360CDF800803B4600224FF0CE
:102E400001112046FFF717FE68B922684AF0010316
:102E5000136143463A4609492046FFF761FE0028C0
:102E600099D0012097E723681B6813F4807F02D074
:102E70004FF40073236403208DE700BF02000100BC
:102E800070B504460D46164623685B6913F0040FBF
:102E900021D12046FFF7D6FDF8B9B5F1FF3FF3D0B9
:102EA000FFF766F8801BA84201D8002DECD12368FB
:102EB0005B6913F0040FE7D100232363202284F819
:102EC0003D2084F83E30226C42F02002226484F8D7
:102ED0003C30012000E0002070BD0120FCE770B50F
:102EE00004460D46164614E06FF010025A610023A6
:102EF0002363202284F83D2084F83E30226C226433
:102F000084F83C30012025E023685B6913F0400F12
:102F100010D02368586910F0400F1AD1586910F08A
:102F2000100FE1D1FFF724F8801BA842ECD8002D48
:102F3000EFD1E9E700232363202284F83D2084F8C1
:102F40003E30226C42F02002226484F83C300120A2
:102F500000E0002070BD0000002800F0CC8070B5BB
:102F6000044690F83D30002B77D0242384F83D3080
:102F70002268136823F0010313602268136843F486
:102F8000004313602268136823F40043136000F0C9
:102F9000F5FD62685A4B9A4264D85A4B98428CBFEE
:102FA00000230123002B40F0A8805749A1FB0031EA
:102FB0008B0C25686A6822F03F0242EA91426A60FF
:102FC00021680A6A22F03F0266684D4DAE424FD832
:102FD000013313430B622168CA6922F44F4222F085
:102FE000FF026568464B9D424CD8431E6D00B3FB03
:102FF000F5F3013340F6FC70034278D0C3F30B03C2
:103000001A43CA6121680B6823F0C003E269206A91
:10301000024313430B6021688B6823F4034323F0BE
:10302000FF032269E068024313438B602168CB6889
:1030300023F0FF036269A06902431343CB60226857
:10304000136843F00103136000202064202384F8F8
:103050003D30206384F83E0070BD80F83C30FEF7C0
:10306000D1F982E7294B98428CBF0023012399E7CD
:103070004FF4967505FB03F3254DA5FB03539B0900
:103080000133A6E7A668BEB9431E05EB450CB3FBAA
:10309000FCF30133C3F30B03B3FA83F35B0943BBC4
:1030A000C6B9431E05EB4505B3FBF5F30133C3F386
:1030B0000B0343F40043A3E7431E05EB850C0CEB25
:1030C0008C0CB3FBFCF30133C3F30B03B3FA83F3B0
:1030D0005B09E4E7431E05EB850505EB8505B3FBBE
:1030E000F5F30133C3F30B0343F4404388E70423B0
:1030F00086E7012384E7012070470120ACE700BF89
:10310000A08601007F841E0083DE1B43FF083D0074
:10311000D34D62102DE9F04383B004460F4690462C
:1031200099460C9EFEF724FF054694F83D00C0B278
:10313000202803D0022003B0BDE8F08300951923B6
:1031400001224B492046FFF796FC002840F0898079
:1031500094F83C30012B00F08680012384F83C3049
:1031600023681A6812F0010F03D11A6842F00102B5
:103170001A602268136823F400631360212384F823
:103180003D30402384F83E30002323640A9B636271
:10319000BDF82C306385638D2385364BE362019542
:1031A00000964B46424639462046FFF753FD00281D
:1031B0005BD1238D002B35D02A4631462046FFF7C0
:1031C0001AFD20BB626A236812781A61626A531C76
:1031D0006362218D013989B22185638D9BB2013BE8
:1031E0009BB263852368586910F0040FE1D0002971
:1031F000DFD052781A61636A01336362238D013B29
:103200002385638D9BB2013B9BB26385D1E7236C21
:10321000042B01D001208EE72268136843F4007369
:103220001360F7E72A4631462046FFF729FE50B1E2
:10323000236C042B01D001207DE72268136843F43E
:1032400000731360F7E72268136843F40073136098
:10325000202384F83D30002384F83E3084F83C304D
:1032600069E7022067E7022065E7012063E700BF06
:10327000020010000000FFFF2DE9F04387B0044674
:103280000F4690469946109EFEF772FE054694F84A
:103290003D00C0B2202804D00227384607B0BDE860
:1032A000F08300951923012288492046FFF7E3FBAC
:1032B000002840F04D8194F83C30012B00F04A8109
:1032C000012384F83C3023681A6812F0010F03D1FF
:1032D0001A6842F001021A602268136823F400633E
:1032E0001360222384F83D30402384F83E300023CD
:1032F00023640E9B6362BDF83C306385638D238538
:10330000734BE362019500964B4642463946204690
:10331000FFF70CFD0746002840F01E81238D5BB9A6
:10332000029323685A6902929A690292029A1A6871
:1033300042F400721A6075E0012B0AD0022B1AD0F9
:103340000023059323685A6905929B690593059BA1
:1033500068E02268136823F48063136000230393FA
:1033600023685A6903929A690392039A1A6842F48D
:1033700000721A6056E02268136823F480631360B9
:103380002268136843F400631360002304932368E6
:103390005A6904929B690493049B43E02A46314690
:1033A0002046FFF79CFD002840F0D88023681A696A
:1033B000636A1A70636A01336362238D013B23855C
:1033C000638D9BB2013B9BB263852BE00095334636
:1033D000002240492046FFF74EFB002840F0C08005
:1033E0002268136843F40073136023681A69636AE0
:1033F0001A70626A531C6362238D013B2385638DBF
:103400009BB2013B9BB2638523681B695370636A5F
:1034100001336362238D013B2385638D9BB2013BA6
:103420009BB26385238D002B00F08980032B53D83A
:10343000012BB3D0022BC9D0009533460022254979
:103440002046FFF718FB002840F08C8022681368A4
:1034500023F48063136023681A69636A1A70636ACD
:1034600001336362238D013B2385638D9BB2013B56
:103470009BB2638500953346002216492046FFF72C
:10348000FAFA002870D12268136843F400731360BD
:1034900023681A69636A1A70626A531C6362238D17
:1034A000013B2385638D9BB2013B9BB263852368FF
:1034B0001B695370636A01336362238D013B23856B
:1034C000638D9BB2013B9BB26385ABE702001000AA
:1034D0000000FFFF040001002A4631462046FFF7A6
:1034E000FEFC002842D123681A69636A1A70636A75
:1034F00001336362228D013A92B22285638D9BB2C1
:10350000013B9BB263852368596911F0040F89D090
:10351000032A0FD023681A69636A1A70636A013339
:103520006362238D013B2385638D9BB2013B9BB27C
:10353000638577E71A6822F480621A60EAE720233D
:1035400084F83D30002384F83E3084F83C30A4E613
:103550000227A2E60227A0E601279EE601279CE6B5
:1035600001279AE6012798E6012796E6012794E6C7
:10357000002800F0E08170B582B00446036813F0C3
:10358000010F3BD09F4B9B6803F00C03042B2CD006
:103590009C4B9B6803F00C03082B21D06368B3F5A8
:1035A000803F4FD0B3F5A02F52D0964B1A6822F42B
:1035B00080321A601A6822F480221A606368002B35
:1035C00050D0FEF7D5FC05468E4B1B6813F4003F28
:1035D00014D1FEF7CDFC401B6428F5D90320B1E1DE
:1035E000884B5B6813F4800FD8D0864B1B6813F4AC
:1035F000003F03D06368002B00F09F81236813F025
:10360000020F54D07F4B9B6813F00C0F3ED07D4BC4
:103610009B6803F00C03082B33D0E368002B68D0C1
:10362000794B01221A60FEF7A3FC0546754B1B6817
:1036300013F0020F54D1FEF79BFC401B0228F5D972
:1036400003207FE16F4A136843F480331360B5E7CA
:103650006C4B1A6842F480221A601A6842F4803275
:103660001A60ABE7FEF784FC0546664B1B6813F453
:10367000003FC3D0FEF77CFC401B6428F5D9032033
:1036800060E1604B5B6813F4800FC6D15D4B1B6833
:1036900013F0020F03D0E368012B40F05081594A28
:1036A000136823F0F803216943EAC1031360236818
:1036B00013F0080F42D063696BB3534B0122C3F878
:1036C000802EFEF755FC05464E4B5B6F13F0020F44
:1036D00034D1FEF74DFC401B0228F5D9032031E11F
:1036E000484A136823F0F803216943EAC1031360D1
:1036F000DDE7454B00221A60FEF73AFC0546414BD8
:103700001B6813F0020FD2D0FEF732FC401B0228D8
:10371000F5D9032016E13C4B0022C3F8802EFEF7BA
:1037200027FC0546374B5B6F13F0020F06D0FEF700
:103730001FFC401B0228F5D9032003E1236813F086
:10374000040F77D02F4B1B6C13F0805F33D1002315
:1037500001932C4B1A6C42F080521A641B6C03F0DC
:1037600080530193019B0125284B1B6813F4807F34
:1037700023D0A368012B34D0052B38D0214B1A6FEE
:1037800022F001021A671A6F22F004021A67A36876
:10379000002B3DD0FEF7ECFB06461A4B1B6F13F0D7
:1037A000020F46D1FEF7E4FB801B41F288339842BA
:1037B000F3D90320C6E00025D6E7144A136843F482
:1037C00080731360FEF7D4FB0646104B1B6813F49E
:1037D000807FCED1FEF7CCFB801B0228F5D90320D9
:1037E000B0E0084A136F43F001031367CFE7054BBE
:1037F0001A6F42F004021A671A6F42F001021A6748
:10380000C5E700BF0038024000004742007000409A
:10381000FEF7AEFB0646524B1B6F13F0020F08D0AB
:10382000FEF7A6FB801B41F288339842F3D90320B0
:1038300088E0EDB9A369002B00F08380484A9268C4
:1038400002F00C02082A51D0022B17D0454B00225F
:103850001A66FEF78DFB0446414B1B6813F0007F90
:1038600042D0FEF785FB001B0228F5D9032069E052
:103870003B4A136C23F080531364DBE7394B00227F
:103880001A66FEF775FB0546354B1B6813F0007F83
:1038900006D0FEF76DFB401B0228F5D9032051E04E
:1038A000E369226A1343626A43EA8213A26A5208F6
:1038B000013A43EA0243E26A43EA0263284A536058
:1038C000284B01221A66FEF753FB0446244B1B6863
:1038D00013F0007F06D1FEF74BFB001B0228F5D941
:1038E00003202FE000202DE000202BE0012B2BD027
:1038F0001B4B5B6803F48001E269914226D103F01F
:103900003F02216A8A4223D1616A47F6C0721A4097
:10391000B2EB811F1ED103F44031A26A5208013A72
:10392000B1EB024F18D103F07063E26AB3EB026FA0
:1039300014D1002006E001207047012002E00120A0
:1039400000E0002002B070BD0120FBE70120F9E794
:103950000120F7E70120F5E70120F3E70120F1E777
:10396000003802400000474208B5264B9B6803F030
:103970000C03042B41D0082B41D1224B5A6802F092
:103980003F025B6813F4800F12D01E4B5968C1F3DD
:1039900088111D480023A1FB0001FDF7EDF8194B2C
:1039A0005B68C3F3014301335B00B0FBF3F008BD78
:1039B000144B5868C0F388104FEA401CBCEB000C55
:1039C0006EEB0E0E4FEA8E1343EA9C634FEA8C11A6
:1039D000B1EB0C0163EB0E03DB0043EA5173C9004A
:1039E00011EB000C43F10003990200234FEA8C20F5
:1039F00041EA9C51FDF7C0F8D1E70348D7E70348F7
:103A0000D5E700BF00380240001BB7000024F400D7
:103A1000002800F09B8070B50D4604464F4B1B6894
:103A200003F007038B4208D2CBB24C4A13701368E1
:103A300003F007038B4240F08B80236813F0020FE2
:103A400017D013F0040F04D0454A936843F4E053B1
:103A50009360236813F0080F04D0414A936843F43D
:103A6000604393603E4A936823F0F003A1680B43E0
:103A70009360236813F0010F32D06368012B21D0CB
:103A80009A1E012A25D9364A126812F0020F61D017
:103A900033498A6822F0030213438B60FEF768FA09
:103AA00006462F4B9B6803F00C036268B3EB820F52
:103AB00016D0FEF75DFA801B41F288339842F0D9A8
:103AC000032042E0264A126812F4003FE0D10120B0
:103AD0003BE0234A126812F0007FD9D1012034E084
:103AE0001E4B1B6803F00703AB4207D9EAB21B4B1E
:103AF0001A701B6803F00703AB422DD1236813F043
:103B0000040F06D0164A936823F4E053E1680B4390
:103B10009360236813F0080F07D0114A936823F4C9
:103B20006043216943EAC1039360FFF71DFF0C4B1B
:103B30009B68C3F303130B4AD35CD8400A4B18604D
:103B40000A4B1868FDF7C2FD002070BD01207047C8
:103B50000120FAE70120F8E70120F6E7003C0240E7
:103B6000003802404CF1000800000020080000204E
:103B7000014B1868704700BF0000002008B5FFF730
:103B8000F7FF044B9B68C3F38223034AD35CD840FE
:103B900008BD00BF0038024044F1000808B5FFF737
:103BA000E7FF044B9B68C3F34233034AD35CD8401E
:103BB00008BD00BF0038024044F100080F23036035
:103BC0000B4B9A6802F0030242609A6802F0F0021E
:103BD00082609A6802F4E052C2609B68DB0803F4DA
:103BE000E0530361034B1B6803F007030B6070474E
:103BF00000380240003C024030B4026A036A23F0FD
:103C0000010303624568836923F073030C681C4356
:103C100022F002028B6813430B4A904206D04560A3
:103C200084614A684263036230BC704723F0080332
:103C3000CA681A4322F0040325F440754A692A43EE
:103C40008D691543EBE700BF0000014030B4036A03
:103C5000026A22F4807202624468C26922F073022E
:103C60000D68154323F400738A6843EA02230D4A62
:103C7000904206D04460C5614A68C263036230BCAA
:103C8000704723F40063CA6843EA022323F4806385
:103C900024F440544A6944EA02148A6944EA02144A
:103CA000E8E700BF0000014030B4036A026A22F472
:103CB000805202624468C26922F4E6420D6842EA18
:103CC000052223F400538D6843EA0533074DA842CB
:103CD00006D04460C2614A680264036230BC704727
:103CE00024F480444D6944EA8514F2E70000014061
:103CF00010B4036A046A24F001040462846924F0A5
:103D0000F00C4CEA021223F00A030B4382610362B7
:103D10005DF8044B704710B4036A046A24F0100481
:103D20000462846924F4704C4CEA023223F0A0034C
:103D300043EA0113826103625DF8044B70478368B4
:103D400023F070030B4343F00703836070470000C8
:103D500090F83D30DBB2012B2AD1022380F83D30B0
:103D60000368154A934218D0B3F1804F15D0A2F5DD
:103D70007C42934211D002F5806293420DD002F54D
:103D80008062934209D002F59A32934205D01A68B4
:103D900042F001021A60002070479A6802F00702A0
:103DA000062A07D01A6842F001021A600020704704
:103DB00001207047002070470000014090F83D301E
:103DC000DBB2012B2FD1022380F83D300268D3688B
:103DD00043F00103D3600368154A934218D0B3F14E
:103DE000804F15D0A2F57C42934211D002F580623B
:103DF00093420DD002F58062934209D002F59A32C7
:103E0000934205D01A6842F001021A600020704700
:103E10009A6802F00702062A07D01A6842F00102E7
:103E20001A6000207047012070470020704700BFD3
:103E300000000140704770477047704770B50446F6
:103E40000368DE681D6915F0020F10D016F0020F2E
:103E50000DD06FF002021A610123037703689B699A
:103E600013F0030F5ED0FFF7E6FF0023237715F072
:103E7000040F12D016F0040F0FD023686FF0040265
:103E80001A610223237723689B6913F4407F4FD084
:103E90002046FFF7D0FF0023237715F0080F12D03C
:103EA00016F0080F0FD023686FF008021A61042380
:103EB00023772368DB6913F0030F40D02046FFF718
:103EC000BAFF0023237715F0100F12D016F0100F51
:103ED0000FD023686FF010021A610823237723683C
:103EE000DB6913F4407F31D02046FFF7A4FF0023A5
:103EF000237715F0010F02D016F0010F2DD115F028
:103F0000800F02D016F0800F2FD115F0400F02D095
:103F100016F0400F31D115F0200F02D016F0200F0F
:103F200033D170BDFFF786FF2046FFF785FF9CE782
:103F30002046FFF77FFF2046FFF77EFFABE72046D6
:103F4000FFF778FF2046FFF777FFBAE72046FFF735
:103F500071FF2046FFF770FFC9E723686FF0010289
:103F60001A612046FDF70CFBC9E723686FF0800259
:103F70001A61204600F023FAC7E723686FF0400279
:103F80001A612046FFF759FFC5E723686FF020024A
:103F90001A61204600F012FAC3E700000368274ABE
:103FA00090420ED0B0F1804F0BD0A2F57C429042EF
:103FB00007D002F58062904203D002F58062904201
:103FC00003D123F070034A6813431C4A90421AD06D
:103FD000B0F1804F17D0A2F57C42904213D002F589
:103FE000806290420FD002F5806290420BD002F5C1
:103FF0009A32904207D002F58062904203D002F5D7
:104000008062904203D123F44073CA68134323F0C3
:1040100080034A6913438A68C2620A688262074A57
:10402000904207D0026842F004020260012242611D
:10403000036070470A690263F4E700BF00000140B3
:1040400040B310B5044690F83D30F3B1022384F834
:104050003D30214651F8040BFFF7A0FF012384F8FF
:10406000463084F83E3084F83F3084F8403084F89D
:10407000413084F8423084F8433084F8443084F886
:10408000453084F83D30002010BD80F83C30FDF70D
:1040900063FCDBE70120704740B310B5044690F89D
:1040A0003D30F3B1022384F83D30214651F8040B32
:1040B000FFF774FF012384F8463084F83E3084F81B
:1040C0003F3084F8403084F8413084F8423084F83E
:1040D000433084F8443084F8453084F83D30002083
:1040E00010BD80F83C30FDF74DFCDBE70120704748
:1040F00030B4036A026A22F01002026244688269E4
:1041000022F4E6420D6842EA052223F020038D687E
:1041100043EA05130C4DA84206D0446082614A6808
:104120008263036230BC704723F08003CD6843EAAA
:10413000051323F0400324F440644D6944EA8504E8
:104140008D6944EA8504E8E70000014038B590F83D
:104150003C30012B66D004460D46012380F83C30EC
:104160000C2A5AD8DFE802F0075959591B595959F6
:104170003059595944000068FFF73EFD22689369A1
:1041800043F0080393612268936923F00403936169
:104190002268936929690B43936100203EE000681F
:1041A000FFF7A6FF2268936943F4006393612268D6
:1041B000936923F48063936122689369296943EAD0
:1041C00001239361002029E00068FFF73FFD22688A
:1041D000D36943F00803D3612268D36923F0040351
:1041E000D3612268D36929690B43D361002015E0AC
:1041F0000068FFF759FD2268D36943F40063D36177
:104200002268D36923F48063D3612268D369296962
:1042100043EA0123D361002000E00120002384F859
:104220003C3038BD0220FCE710B4846824F47F4C95
:1042300042EA03220A4342EA0C0282605DF8044B20
:10424000704790F83C30012B78D010B5044601231C
:1042500080F83C30022380F83D300268936823F4F4
:104260007F4323F0770393600B68602B4CD023D8F7
:10427000402B54D011D8202B03D00AD80BB1102BCF
:1042800005D119462068FFF75AFD002028E00120DB
:1042900026E0302BF5D0012022E0502B0AD1CA684D
:1042A00049680068FFF724FD50212068FFF747FDAB
:1042B000002015E0012013E0B3F5805F3AD0B3F59C
:1042C000005F14D0702B37D1CB684A6889680068CA
:1042D000FFF7AAFF2268936843F0770393600020FA
:1042E000012384F83D30002384F83C3010BDCB68B6
:1042F0004A6889680068FFF797FF2268936843F46B
:10430000804393600020EBE7CA6849680068FFF7C4
:1043100002FD60212068FFF712FD0020E0E7CA6877
:1043200049680068FFF7E4FC40212068FFF707FDBB
:104330000020D5E70020D3E70120D1E70220704715
:1043400090F83C20012A35D010B40346012280F8B1
:104350003C20022280F83D2002685068946820F0DA
:10436000700C086840EA0C0050601A6812488242DB
:1043700012D0B2F1804F0FD0A0F57C4082420BD01A
:1043800000F58060824207D000F58060824203D051
:1043900000F59A30824204D124F080044968214318
:1043A0009160012283F83D20002083F83C005DF8F5
:1043B000044B70470220704700000140704770476F
:1043C000026802F10C0353E8003F23F0C0030C32F3
:1043D00042E800310029F3D1202380F841307047B2
:1043E000026802F10C0353E8003F23F490730C328F
:1043F00042E800310029F3D1026802F1140353E8C6
:10440000003F23F00103143242E800310029F3D1C8
:10441000036B012B05D0202380F842300023036377
:104420007047026802F10C0353E8003F23F01003C9
:104430000C3242E800310029F3D1ECE790F841302A
:10444000DBB2212B01D0022070478368B3F5805F77
:1044500017D0036A5A1C02621A7803685A60C38C28
:104460009BB2013B9BB2C3844BB90268D36823F073
:104470008003D3600268D36843F04003D360002018
:1044800070470369002BE4D1036A1B880268C3F3F9
:1044900008035360036A02330362E0E710B5044681
:1044A0000268136923F44053C1680B4313618368A6
:1044B00002691A4343691A43C3691A430168CB6806
:1044C00023F4164323F00C031343CB6002685369B3
:1044D00023F4407381690B4353610368314A93426B
:1044E00006D002F58062934202D0FFF747FB01E05D
:1044F000FFF754FBE369B3F5004F29D000210318FF
:1045000049411B1841F10001C90041EA5371DB0028
:10451000181863684FEA83024FEA937341F1000170
:10452000FCF72AFB204AA2FB00314909642303FB64
:1045300011031B013233A2FB03235B0903F0F002DA
:1045400002EB011203F00F03216813448B6010BDCE
:104550000023021843EB0301121841F10001C900C6
:1045600041EA5271D200101841F1000162689218BC
:104570005B41FCF701FB0C4AA2FB003149096423B3
:1045800003FB1103DB003233A2FB03235B095A0058
:1045900002F4F87202EB011203F0070321681344DE
:1045A0008B60D4E7001001401F85EB5160B310B55C
:1045B000044690F8413013B3242384F84130226834
:1045C000D36823F40053D3602046FFF767FF2268C7
:1045D000136923F4904313612268536923F02A037B
:1045E00053612268D36843F40053D36000206064B1
:1045F000202384F8413084F84230606310BD80F895
:104600004030FDF701FBD7E70120704738B513466E
:1046100090F84120D2B2202A36D10446002935D064
:104620000BB9012031E001628384C384002242641B
:10463000212084F84100A06B154DC563A06B154D7A
:104640000564A06B144DC564A06B0265226804323A
:10465000A06BFDF78DFF30B110236364202384F835
:104660004130012011E023686FF040021A60226897
:1046700002F1140353E8003F43F08003143242E890
:1046800000310029F3D100E0022038BD0120FCE711
:104690009D460008054700081547000808B5034671
:1046A000806B1B681B6813F4807F1AD10023C384BE
:1046B000026802F1140353E8003F23F08003143230
:1046C00042E800310029F3D1026802F10C0353E8FB
:1046D000003F43F040030C3242E800310029F3D19F
:1046E00008BD04F011F9FBE708B50168CA6822F0BB
:1046F0004002CA60202280F8412004F005F9002021
:1047000008BD704708B5806BFFF7FBFF08BD704719
:104710007047704710B5846B23685A6994F841302C
:10472000DBB2212B10D023685A6902F0400294F8C2
:104730004230DBB2222B11D0636C43F01003636470
:104740002046FFF7E6FF10BD02F08002002AEAD003
:104750000023E3842046FFF733FEE4E7002AEBD092
:104760000023E3852046FFF73BFEE5E708B5806BB5
:104770000023C385FFF7CDFF08BD90F84230DBB2C0
:10478000222B69D18368B3F5805F4FD0826AB3F57D
:10479000805F04D0002B56D10369002B53D10368EE
:1047A0005B681370836A01338362C38D9BB2013BE4
:1047B0009BB2C385002B51D100B583B00268D3688A
:1047C00023F02003D3600268D36823F48073D3609E
:1047D0000268536923F001035361202380F84230BB
:1047E00000234363036B012B33D10023036302686F
:1047F00002F10C0353E8003F23F010030C3242E8AF
:1048000000310029F3D103681A6812F0100F06D0A6
:10481000002201921A6801925B680193019B818DCD
:1048200004F046F8002003B05DF804FB0269002A9A
:10483000ACD1826A03685B68C3F308031380836AA0
:1048400002338362B1E703685B6803F07F03137090
:10485000A8E7FFF75CFFE5E70220704700207047FC
:1048600010B582B0044602681368D068516913F02D
:104870000F0F09D113F0200F0CD010F0200F09D02A
:104880002046FFF77AFF16E011F0010115D110F470
:10489000907F12D1216B012979D013F0800F03D0C2
:1048A00010F0800F40F0218113F0400F03D010F082
:1048B000400F40F01E8102B010BD13F0010F06D072
:1048C00010F4807F03D0626C42F00102626413F046
:1048D000040F04D019B1626C42F00202626413F05A
:1048E000020F04D019B1626C42F00402626413F04A
:1048F000080F07D010F0200F00D119B1626C42F000
:1049000008026264626C002AD5D013F0200F02D036
:1049100010F0200F29D123685B6903F04003626C1B
:1049200012F0080F00D163B32046FFF759FD23684A
:104930005B6913F0400F20D0226802F1140353E8A2
:10494000003F23F04003143242E800310029F3D144
:10495000E36B73B1694A1A65E06BFDF788FE0028C6
:10496000A9D0E06B036D9847A5E72046FFF705FF48
:10497000D1E72046FFF7CDFE9DE72046FFF7C9FEB1
:1049800099E72046FFF7C5FE0023636493E713F021
:10499000100F82D010F0100F3FF47FAF002301936F
:1049A0001368019353680193019B536913F0400FFF
:1049B0005FD0E26B13685B689BB2002B4AD0A18D7D
:1049C000994247D9E385D369B3F5807F37D0226810
:1049D00002F10C0353E8003F23F480730C3242E8E9
:1049E00000310029F3D1226802F1140353E8003F9B
:1049F00023F00103143242E800310029F3D1226888
:104A000002F1140353E8003F23F04003143242E85C
:104A100000310029F3D1202384F84230002323639E
:104A2000226802F10C0353E8003F23F010030C321C
:104A300042E800310029F3D1E06BFDF7CEFD0223FF
:104A40006363A18DE38D9BB2C91A89B2204603F03E
:104A50002FFF30E7A18D99427FF42DAFD369B3F5D5
:104A6000807F7FF428AF02236363204603F020FF9A
:104A700021E7A18DE38D9BB2C91A89B2E38D9BB268
:104A8000002B3FF418AF00293FF415AF226802F164
:104A90000C0353E8003F23F490730C3242E80030DB
:104AA0000028F3D1226802F1140353E8003F23F0F9
:104AB0000103143242E800300028F3D1202384F8A7
:104AC000423000232363226802F10C0353E8003FC5
:104AD00023F010030C3242E800300028F3D1022307
:104AE0006363204603F0E4FEE5E62046FFF7A6FCFC
:104AF000E1E62046FFF7F8FDDDE600BF6D47000860
:104B000008B5806B01234363036B012B02D0FFF7D1
:104B1000FFFD08BD818D490803F0CAFEF9E708B51D
:104B20000346806B1B681B6813F4807F2BD1002326
:104B3000C385026802F10C0353E8003F23F480733D
:104B40000C3242E800310029F3D1026802F114036B
:104B500053E8003F23F00103143242E800310029FA
:104B6000F3D1026802F1140353E8003F23F040033D
:104B7000143242E800310029F3D1202380F842307A
:104B8000036B012B07D000234363036B012B0FD072
:104B9000FFF7BDFD08BD026802F10C0353E8003FBA
:104BA00023F010030C3242E800310029F3D1EAE788
:104BB000818D03F07DFEEDE730B583B004461346EA
:104BC0008162828500224264222084F84200E06BE8
:104BD000244DC563E06B244D0564E06B234DC56433
:104BE000E06B026520680A46011DE06BFDF7C0FC22
:104BF00000282FD10023019323681A6801925B6873
:104C00000193019B23695BB1226802F10C0353E815
:104C1000003F43F480730C3242E800310029F3D1A5
:104C2000226802F1140353E8003F43F001031432F9
:104C300042E800310029F3D1226802F1140353E85D
:104C4000003F43F04003143242E800310029F3D121
:104C500003B030BD10236364202384F84230012068
:104C6000F6E700BF1F4B0008014B0008154700087E
:104C700090F84230DBB2202B27D110B582B0044629
:104C800029B312B9012002B010BD01230363002330
:104C90004363FFF791FF236B012B01D00120F2E763
:104CA0000023019323681A6801925B680193019BBA
:104CB000226802F10C0353E8003F43F010030C326A
:104CC00042E800310029F3D1DDE7022070470120DE
:104CD000D9E7842801D0033070470020704708B519
:104CE00001F0A4F9002008BD2DE9F04387B00E467D
:104CF0004469C4B18569B5B14768D0F80080D0F87F
:104D00001090B0F90800FFF7E4FF029501940090BD
:104D100033464A464146384601F01AF9059005984F
:104D200007B0BDE8F083446805680769B0F908007A
:104D3000FFF7CFFF05AB019300903346BAB2294687
:104D4000204601F040F90128E9D00020E8E700F111
:104D5000080343604FF0FF328260C36003610023A9
:104D60000360704700230361704743684B609A6893
:104D70008A6051609960086103680133036070477D
:104D800030B40D68B5F1FF3F11D000F108031C46A7
:104D90005B681A68AA42FAD963684B6099608C60B4
:104DA0006160086103680133036030BC70470469C7
:104DB000F2E70369416882688A60416851605A6815
:104DC000824206D0002202611A68013A1A6018680D
:104DD000704782685A60F5E782B0002301930D4B5B
:104DE0001B68B3F1FF3F08D04FF0500383F31188E5
:104DF000BFF36F8FBFF34F8FFEE74FF0500383F386
:104E00001188BFF36F8FBFF34F8F019B002BFCD036
:104E100002B070470C00002008480068006880F36A
:104E200008884FF0000080F3148862B661B6BFF3C3
:104E30004F8FBFF36F8F00DF00BF000008ED00E071
:104E4000DFF80C00016841F4700101607047000058
:104E500088ED00E04FF0807340F8043C21F0010140
:104E600040F8081C054B40F80C3C40F8202C6FF033
:104E7000020340F8243C4438704700BFD94D000875
:104E8000074B19680868B0E8F04F80F30988BFF352
:104E90006F8F4FF0000080F311887047AFF30080F0
:104EA000409D00204FF0500383F31188BFF36F8FB4
:104EB000BFF34F8F0B4A136801331360012B00D0EF
:104EC00070474FF0E023D3F8043D13F0FF0FF7D005
:104ED0004FF0500383F31188BFF36F8FBFF34F8FF1
:104EE000FEE700BF0C000020094B1B6843B94FF0E0
:104EF000500383F31188BFF36F8FBFF34F8FFEE72B
:104F0000013B034A13600BB983F31188704700BF5C
:104F10000C00002000000000000000000000000065
:104F2000EFF30980BFF36F8F154B1A681EF0100F57
:104F300008BF20ED108A20E9F04F10602DE909002C
:104F40004FF0500080F31188BFF34F8FBFF36F8F86
:104F500001F0DCF94FF0000080F3118809BC1968FA
:104F60000868B0E8F04F1EF0100F08BFB0EC108AD0
:104F700080F30988BFF36F8F704700BFAFF30080E5
:104F8000409D002008B54FF0500383F31188BFF314
:104F90006F8FBFF34F8F01F08BF828B14FF0E023F4
:104FA0004FF08052C3F8042D002383F3118808BD0D
:104FB0004FF0E022002313619361054B1B68054904
:104FC000A1FB03139B09013B536107231361704746
:104FD00000000020D34D62104FF0E023D3F8002DE5
:104FE0003D4B9A421CD04FF0E023D3F8002D3B4BB1
:104FF0009A421ED030B583B0394B1A78D2B20192A2
:10500000FF221A701B78DBB28DF803309DF8033055
:1050100003F05003334A1370334B07221A601BE02E
:105020004FF0500383F31188BFF36F8FBFF34F8F9F
:10503000FEE74FF0500383F31188BFF36F8FBFF388
:105040004F8FFEE7284A1368013B13609DF8033039
:105050005B00DBB28DF803309DF8033013F0800F56
:10506000F0D1214B1B68032B08D04FF0500383F382
:105070001188BFF36F8FBFF34F8FFEE71B021A4AF1
:10508000136003F4E0631360019BDBB2144A1370F6
:105090004FF0E024D4F8203D43F47003C4F8203DE1
:1050A000D4F8203D43F07043C4F8203DFFF780FF63
:1050B00000250E4B1D60FFF7C3FED4F8343F43F0CC
:1050C0004043C4F8343FFFF7A7FE01F01FF9FFF794
:1050D00083FE284603B030BD71C20F4170C20F413C
:1050E00000E400E0540F0020500F00200C000020CE
:1050F000EFF305830F2B0FD9114A9B5CDBB2114AEA
:1051000012789A4208D94FF0500383F31188BFF305
:105110006F8FBFF34F8FFEE74FF0E023D3F80C3DC6
:1051200003F4E063084A1268934208D94FF0500331
:1051300083F31188BFF36F8FBFF34F8FFEE7704784
:10514000F0E300E0540F0020500F0020134A12F04B
:10515000070F1FD0D11D21F00701C1F50C43A0336B
:1051600013440A460E480260002141601344083B84
:1051700023F007030B48036059601960991A5160C6
:105180001360094B1960094B1960094B4FF000423D
:105190001A60704748F6A043E4E700BF780F00208C
:1051A000700F00206C0F0020640F0020680F00209B
:1051B000580F0020164B1A461B688342FBD35168D8
:1051C00002EB010C844509D0416800EB010C6345FA
:1051D00009D00360904219D01060704740680144C4
:1051E00051601046F0E710B40A4C2468A3420BD07B
:1051F0005B681944416013681B680360904200D0EB
:1052000010605DF8044B70470460F7E7704700BF1B
:10521000700F00206C0F002038B5044600F040FFEE
:10522000384B1B68B3B1384B1B681C4250D1002C63
:1052300050D004F1080214F0070F02D022F0070248
:105240000832002A55D0314B1B68934253D3304962
:105250000C6804E0FFF77AFFE5E721461C46636827
:10526000934202D22368002BF7D1264B1B68A3423E
:1052700043D00D68083523680B6063689B1A102BB8
:1052800010D9A01810F0070F08D04FF0500383F387
:105290001188BFF36F8FBFF34F8FFEE743606260EB
:1052A000FFF788FF626819490B689B1A0B60194960
:1052B00009688B4201D217490B60134B1B681343DB
:1052C000636000232360144A13680133136002E013
:1052D000002500E0002500F077FF15F0070F0ED045
:1052E0004FF0500383F31188BFF36F8FBFF34F8FDD
:1052F000FEE70025EFE70025EDE70025EBE7284670
:1053000038BD00BF6C0F0020580F0020680F002030
:10531000700F0020640F0020600F0020002834D0A0
:1053200038B50446A0F1080550F8043C174A126845
:10533000134208D14FF0500383F31188BFF36F8FEE
:10534000BFF34F8FFEE750F8081C41B14FF05003F8
:1053500083F31188BFF36F8FBFF34F8FFEE723EA0C
:10536000020340F8043C00F09BFE54F8041C084A79
:1053700013680B4413602846FFF71CFF054A1368A7
:105380000133136000F020FF38BD7047580F002034
:10539000680F00205C0F00200346406A18B11B6BA9
:1053A0001868C0F10700704710B50446FFF77AFD92
:1053B000A26BE36B9A4204D00024FFF795FD2046D0
:1053C00010BD0124F9E710B50446FFF76BFDA36B90
:1053D00023B90124FFF788FD204610BD0024F9E71A
:1053E00070B504461546866B026C5AB903681BB14A
:1053F00000200136A66370BD806801F0EBF8002341
:10540000A360F6E76DB94068FBF7D0FB6368226CD8
:1054100013446360A268934219D3236863602846EB
:10542000E7E7C068FBF7C2FBE368226C51429B1AB6
:10543000E3602268934202D2A3680B44E360022D2A
:1054400001D00020D5E726B1013E0020D1E7284653
:10545000CFE70020CDE770B582B00190846C64B1D5
:10546000A26BE36B9A4211D34FF0500383F3118880
:10547000BFF36F8FBFF34F8FFEE74FF0500383F3FF
:105480001188BFF36F8FBFF34F8FFEE7A26B93427C
:1054900003D80025284602B070BD94F8456076B266
:1054A000002201A92046FFF79BFF0546B6F1FF3F0A
:1054B00004D0731C5BB284F84530EBE7636A002BC1
:1054C000E8D004F1240000F085FF0028E2D0012597
:1054D000E0E70346026C6AB110B50846D96811448A
:1054E000D9609C68A14201D31968D960D968FBF7DB
:1054F0005DFB10BD704738B50546FFF7D3FC95F846
:10550000454064B208E06B6AB3B105F1240000F0D5
:1055100061FF70B9013C64B2002C0DDDAB6C002B57
:10552000F1D02846FFF797FF0028F3D000F0E6FF00
:10553000F0E700F0E3FFEDE7FF2385F84530FFF7E4
:10554000D3FCFFF7AFFC95F8444064B201E0013CA6
:1055500064B2002C0ADD2B6943B105F1100000F0A4
:1055600039FF0028F3D000F0C9FFF0E7FF2385F8EA
:105570004430FFF7B9FC38BD38B5E0B10D460446FC
:10558000FFF790FC2368E26B216C01FB0230A06006
:105590000020A0636360013A02FB0133E360FF2354
:1055A00084F8443084F84530FDB9236963B9FFF7C6
:1055B0009BFC012038BD4FF0500383F31188BFF3EB
:1055C0006F8FBFF34F8FFEE704F1100000F002FF72
:1055D0000028ECD04FF0E0234FF08052C3F8042DA8
:1055E000BFF34F8FBFF36F8FE1E704F11000FFF7B8
:1055F000AEFB04F12400FFF7AAFBD8E710B5029C2C
:105600000B4649B92460E063236401212046FFF77B
:10561000B3FF0023A36410BD2260F4E740B94FF04C
:10562000500383F31188BFF36F8FBFF34F8FFEE7F3
:10563000F0B583B00D461446064601FB00F04C3031
:10564000FFF7EAFD074650B1002380F8463000908E
:10565000234600F14C0229463046FFF7CFFF38467B
:1056600003B0F0BDF0B585B0019288B10F461D467C
:105670000446B1B1022D20D1E36B012B1DD04FF0B8
:10568000500383F31188BFF36F8FBFF34F8FFEE793
:105690004FF0500383F31188BFF36F8FBFF34F8F29
:1056A000FEE7036C002BE5D04FF0500383F3118825
:1056B000BFF36F8FBFF34F8FFEE700F025FF064665
:1056C00058B9019B002B5ED04FF0500383F3118833
:1056D000BFF36F8FBFF34F8FFEE7002653E0A66B3B
:1056E0002A4639462046FFF77BFEA36CABB1022D5C
:1056F00000D16EB92046FFF7AEFE48B14FF0E0236F
:105700004FF08052C3F8042DBFF34F8FBFF36F8F5C
:10571000FFF7EAFB012005B0F0BD636A63B900281A
:10572000F6D04FF0E0234FF08052C3F8042DBFF3C2
:105730004F8FBFF36F8FEBE704F1240000F04AFEB8
:105740000028E5D04FF0E0234FF08052C3F8042D3D
:10575000BFF34F8FBFF36F8FDAE7FFF7C5FB002072
:10576000D9E702A800F07CFE012619E0002384F8A6
:10577000443021E0002384F8453023E02046FFF741
:10578000BAFE00F021FDFFF78DFBA26BE36B9A429E
:10579000A5D3022DA3D0019B002BDED0002EE0D09C
:1057A000FFF7A2FB00F07CFCFFF77CFB94F84420A1
:1057B00052B2B2F1FF3FD9D094F8452052B2B2F1C3
:1057C000FF3FD7D0FFF790FB01A902A800F054FEDD
:1057D000D8B92046FFF7E8FD0028CFD0019904F1A1
:1057E000100000F0DFFD2046FFF785FE00F0ECFC26
:1057F0000028C8D14FF0E0234FF08052C3F8042DA9
:10580000BFF34F8FBFF36F8FBDE72046FFF773FEE7
:1058100000F0DAFC00207EE768B170B50D46044662
:10582000036C8BB14FF0500383F31188BFF36F8F7C
:10583000BFF34F8FFEE74FF0500383F31188BFF3A0
:105840006F8FBFF34F8FFEE70368EBB1FFF750FC9C
:10585000EFF311864FF0500383F31188BFF36F8F7E
:10586000BFF34F8FA26BE36B934230D994F845306E
:105870005BB20132A263B3F1FF3F11D001335BB2DF
:1058800084F84530012023E08368002BDED04FF000
:10589000500383F31188BFF36F8FBFF34F8FFEE781
:1058A000A36C3BB12046FFF7D6FDA0B1ADB10120FE
:1058B00028600DE0636A0BB9012009E004F12400BF
:1058C00000F088FD58B165B10120286000E000209B
:1058D00086F3118870BD0120FAE70120F8E7012066
:1058E000F6E70120F4E7F0B585B0019290B10F46DC
:1058F0000446C1B100F008FE064600BB019B002B28
:105900005ED04FF0500383F31188BFF36F8FBFF366
:105910004F8FFEE74FF0500383F31188BFF36F8F73
:10592000BFF34F8FFEE7036C002BE3D04FF0500323
:1059300083F31188BFF36F8FBFF34F8FFEE700260D
:105940003EE039462046FFF7C4FD013DA5632369CB
:1059500023B9FFF7C9FA012005B0F0BD04F110002A
:1059600000F038FD0028F4D04FF0E0234FF08052D3
:10597000C3F8042DBFF34F8FBFF36F8FE9E7FFF735
:10598000B3FA0020E8E702A800F06AFD012621E052
:10599000002384F8443029E0002384F845302BE0CC
:1059A0002046FFF7A8FD00F00FFC09E02046FFF7B6
:1059B000A2FD00F009FC2046FFF705FD00283FD1BD
:1059C000FFF770FAA56B002DBBD1019B002BD6D041
:1059D000002ED8D0FFF788FA00F062FBFFF762FADA
:1059E00094F844305BB2B3F1FF3FD1D094F8453026
:1059F0005BB2B3F1FF3FCFD0FFF776FA01A902A85F
:105A000000F03AFD0028D1D12046FFF7DCFC002849
:105A1000C6D0019904F1240000F0C4FC2046FFF731
:105A20006AFD00F0D1FB0028CAD14FF0E0234FF00F
:105A30008052C3F8042DBFF34F8FBFF36F8FBFE7C2
:105A4000002089E770B584B0019158B10446036C19
:105A50008BB14FF0500383F31188BFF36F8FBFF307
:105A60004F8FFEE74FF0500383F31188BFF36F8F22
:105A7000BFF34F8FFEE700F047FD054650B9019B8D
:105A80005BB14FF0500383F31188BFF36F8FBFF307
:105A90004F8FFEE70026354655E0064653E0013BB2
:105AA000A36323683BB123694BB9FFF71DFA0126B5
:105AB000304604B070BD00F03FFEA060F3E704F193
:105AC000100000F087FC0028EFD04FF0E0234FF0EB
:105AD0008052C3F8042DBFF34F8FBFF36F8FE4E7FD
:105AE00046B14FF0500383F31188BFF36F8FBFF3BC
:105AF0004F8FFEE7FFF7F8F9DAE702A800F0B0FCF5
